:020000040000FA
:020000000528D1
:040002000034003492
:080008009028831603308500E7
:10001000003087008800831290308B009F171F17D5
:100020009F101F14831604309F00831287018801DC
:10003000AF201F159F121F129F111F1919281E088C
:10004000A1003220A300870098201F159F121F12C5
:100050009F151F1925281E08A5005C20A4008800F4
:100060009820192800302102031986281C3021020B
:100070000319872833302102031988284C302102C4
:10008000031989286630210203198A287F3021024A
:1000900003198B289930210203198C28B3302102CF
:1000A00003198D28CC30210203198E28E630210255
:1000B00003198F2823080800003025020319862819
:1000C0001C3025020319872833302502031988289C
:1000D0004C302502031989286630250203198A2825
:1000E0007F30250203198B289930250203198C28AB
:1000F000B330250203198D28CC30250203198E2830
:10010000E630250203198F28240808003F343034D4
:100110005B344F3466346D347D3407347F346F3450
:10012000793087008800AF20AF20AF208B10090006
:1001300000000000000000000000000008000000B7
:10014000A430AB2800004030AB281F30AB280000A3
:100150000E30AB2805308000800BAC280800C8307A
:10016000BE286430BE283230BE281430BE280A3083
:10017000BE280530BE280230BE2801308100F9308B
:1001800080000000800BC128810BBF280800C83008
:10019000D2286430D2283230D2281430D2280A3003
:1001A000D2280530820064308100F93080000000E0
:0E01B000800BD728810BD528820BD32808009E
:02400E00713F00
:00000001FF
